{"abi":[{"type":"constructor","inputs":[{"name":"creatorFee","type":"uint24","internalType":"uint24"},{"name":"insuranceFee","type":"uint24","internalType":"uint24"},{"name":"lpFee","type":"uint24","internalType":"uint24"},{"name":"liquidationFee","type":"uint24","internalType":"uint24"}],"stateMutability":"nonpayable"},{"type":"function","name":"CREATOR_FEE","inputs":[],"outputs":[{"name":"","type":"uint24","internalType":"uint24"}],"stateMutability":"view"},{"type":"function","name":"INSURANCE_FEE","inputs":[],"outputs":[{"name":"","type":"uint24","internalType":"uint24"}],"stateMutability":"view"},{"type":"function","name":"LIQUIDATION_FEE","inputs":[],"outputs":[{"name":"","type":"uint24","internalType":"uint24"}],"stateMutability":"view"},{"type":"function","name":"LP_FEE","inputs":[],"outputs":[{"name":"","type":"uint24","internalType":"uint24"}],"stateMutability":"view"}],"bytecode":{"object":"0x610100604052348015610010575f80fd5b50604051610316380380610316833981810160405281019061003291906100bf565b8362ffffff1660808162ffffff16815250508262ffffff1660a08162ffffff16815250508162ffffff1660c08162ffffff16815250508062ffffff1660e08162ffffff168152505050505050610123565b5f80fd5b5f62ffffff82169050919050565b61009e81610087565b81146100a8575f80fd5b50565b5f815190506100b981610095565b92915050565b5f805f80608085870312156100d7576100d6610083565b5b5f6100e4878288016100ab565b94505060206100f5878288016100ab565b9350506040610106878288016100ab565b9250506060610117878288016100ab565b91505092959194509250565b60805160a05160c05160e0516101c26101545f395f61013401525f61011001525f60c801525f60ec01526101c25ff3fe608060405234801561000f575f80fd5b506004361061004a575f3560e01c80631573b5771461004e5780631a7dfa9f1461006c5780635e3f27271461008a578063b1827330146100a8575b5f80fd5b6100566100c6565b6040516100639190610173565b60405180910390f35b6100746100ea565b6040516100819190610173565b60405180910390f35b61009261010e565b60405161009f9190610173565b60405180910390f35b6100b0610132565b6040516100bd9190610173565b60405180910390f35b7f000000000000000000000000000000000000000000000000000000000000000081565b7f000000000000000000000000000000000000000000000000000000000000000081565b7f000000000000000000000000000000000000000000000000000000000000000081565b7f000000000000000000000000000000000000000000000000000000000000000081565b5f62ffffff82169050919050565b61016d81610156565b82525050565b5f6020820190506101865f830184610164565b9291505056fea2646970667358221220908f15b154914b5f0add212a7f1fc7f80fa189345aa58da78f04195db27d4f7564736f6c63430008180033","linkReferences":{}},"methodIdentifiers":{"CREATOR_FEE()":"1a7dfa9f","INSURANCE_FEE()":"1573b577","LIQUIDATION_FEE()":"b1827330","LP_FEE()":"5e3f2727"},"id":0}