{"abi":[{"type":"function","name":"cfgs","inputs":[{"name":"perpId","type":"bytes32","internalType":"bytes32"}],"outputs":[{"name":"key","type":"tuple","internalType":"struct MockPerpManager.PoolKey","components":[{"name":"currency0","type":"address","internalType":"address"},{"name":"currency1","type":"address","internalType":"address"},{"name":"fee","type":"uint24","internalType":"uint24"},{"name":"tickSpacing","type":"int24","internalType":"int24"},{"name":"hooks","type":"address","internalType":"address"}]},{"name":"creator","type":"address","internalType":"address"},{"name":"vault","type":"address","internalType":"address"},{"name":"beacon","type":"address","internalType":"address"},{"name":"fees","type":"address","internalType":"address"},{"name":"marginRatios","type":"address","internalType":"address"},{"name":"lockupPeriod","type":"address","internalType":"address"},{"name":"sqrtPriceImpactLimit","type":"address","internalType":"address"}],"stateMutability":"view"},{"type":"function","name":"closePosition","inputs":[{"name":"params","type":"tuple","internalType":"struct MockPerpManager.ClosePositionParams","components":[{"name":"posId","type":"uint256","internalType":"uint256"},{"name":"minAmt0Out","type":"uint128","internalType":"uint128"},{"name":"minAmt1Out","type":"uint128","internalType":"uint128"},{"name":"maxAmt1In","type":"uint128","internalType":"uint128"}]}],"outputs":[],"stateMutability":"nonpayable"},{"type":"function","name":"closedPositions","inputs":[{"name":"","type":"uint256","internalType":"uint256"}],"outputs":[{"name":"","type":"bool","internalType":"bool"}],"stateMutability":"view"},{"type":"function","name":"createPerp","inputs":[{"name":"params","type":"tuple","internalType":"struct MockPerpManager.CreatePerpParams","components":[{"name":"beacon","type":"address","internalType":"address"},{"name":"fees","type":"address","internalType":"address"},{"name":"marginRatios","type":"address","internalType":"address"},{"name":"lockupPeriod","type":"address","internalType":"address"},{"name":"sqrtPriceImpactLimit","type":"address","internalType":"address"},{"name":"startingSqrtPriceX96","type":"uint256","internalType":"uint256"}]}],"outputs":[{"name":"perpId","type":"bytes32","internalType":"bytes32"}],"stateMutability":"nonpayable"},{"type":"function","name":"openMakerPos","inputs":[{"name":"perpId","type":"bytes32","internalType":"bytes32"},{"name":"params","type":"tuple","internalType":"struct MockPerpManager.OpenMakerPosParams","components":[{"name":"holder","type":"address","internalType":"address"},{"name":"margin","type":"uint128","internalType":"uint128"},{"name":"liquidity","type":"uint120","internalType":"uint120"},{"name":"tickLower","type":"int24","internalType":"int24"},{"name":"tickUpper","type":"int24","internalType":"int24"},{"name":"maxAmt0In","type":"uint128","internalType":"uint128"},{"name":"maxAmt1In","type":"uint128","internalType":"uint128"}]}],"outputs":[{"name":"posId","type":"uint256","internalType":"uint256"}],"stateMutability":"nonpayable"},{"type":"function","name":"openTakerPos","inputs":[{"name":"perpId","type":"bytes32","internalType":"bytes32"},{"name":"params","type":"tuple","internalType":"struct MockPerpManager.OpenTakerPosParams","components":[{"name":"holder","type":"address","internalType":"address"},{"name":"isLong","type":"bool","internalType":"bool"},{"name":"margin","type":"uint128","internalType":"uint128"},{"name":"marginRatio","type":"uint24","internalType":"uint24"},{"name":"unspecifiedAmountLimit","type":"uint128","internalType":"uint128"}]}],"outputs":[{"name":"posId","type":"uint256","internalType":"uint256"}],"stateMutability":"nonpayable"},{"type":"function","name":"positions","inputs":[{"name":"posId","type":"uint256","internalType":"uint256"}],"outputs":[{"name":"perpId","type":"bytes32","internalType":"bytes32"},{"name":"margin","type":"uint256","internalType":"uint256"},{"name":"entryPerpDelta","type":"int256","internalType":"int256"},{"name":"entryUsdDelta","type":"int256","internalType":"int256"},{"name":"entryCumlFundingX96","type":"int256","internalType":"int256"},{"name":"entryCumlBadDebtX96","type":"uint256","internalType":"uint256"},{"name":"entryCumlUtilizationX96","type":"uint256","internalType":"uint256"},{"name":"marginRatios","type":"tuple","internalType":"struct MockPerpManager.MarginRatios","components":[{"name":"min","type":"uint24","internalType":"uint24"},{"name":"max","type":"uint24","internalType":"uint24"},{"name":"liq","type":"uint24","internalType":"uint24"}]},{"name":"makerDetails","type":"tuple","internalType":"struct MockPerpManager.MakerDetails","components":[{"name":"unlockTimestamp","type":"uint32","internalType":"uint32"},{"name":"tickLower","type":"int24","internalType":"int24"},{"name":"tickUpper","type":"int24","internalType":"int24"},{"name":"liquidity","type":"uint128","internalType":"uint128"},{"name":"entryCumlFundingBelowX96","type":"int256","internalType":"int256"},{"name":"entryCumlFundingWithinX96","type":"int256","internalType":"int256"},{"name":"entryCumlFundingDivSqrtPWithinX96","type":"int256","internalType":"int256"}]}],"stateMutability":"view"},{"type":"function","name":"protocolFee","inputs":[],"outputs":[{"name":"","type":"uint24","internalType":"uint24"}],"stateMutability":"view"},{"type":"function","name":"quoteClosePosition","inputs":[{"name":"posId","type":"uint256","internalType":"uint256"}],"outputs":[{"name":"unexpectedReason","type":"bytes","internalType":"bytes"},{"name":"pnl","type":"int256","internalType":"int256"},{"name":"funding","type":"int256","internalType":"int256"},{"name":"netMargin","type":"uint256","internalType":"uint256"},{"name":"wasLiquidated","type":"bool","internalType":"bool"}],"stateMutability":"view"},{"type":"function","name":"setProtocolFee","inputs":[{"name":"fee","type":"uint24","internalType":"uint24"}],"outputs":[],"stateMutability":"nonpayable"},{"type":"function","name":"setupPerp","inputs":[{"name":"perpId","type":"bytes32","internalType":"bytes32"},{"name":"key","type":"tuple","internalType":"struct MockPerpManager.PoolKey","components":[{"name":"currency0","type":"address","internalType":"address"},{"name":"currency1","type":"address","internalType":"address"},{"name":"fee","type":"uint24","internalType":"uint24"},{"name":"tickSpacing","type":"int24","internalType":"int24"},{"name":"hooks","type":"address","internalType":"address"}]},{"name":"creator","type":"address","internalType":"address"},{"name":"vault","type":"address","internalType":"address"},{"name":"beacon","type":"address","internalType":"address"},{"name":"fees","type":"address","internalType":"address"},{"name":"marginRatios","type":"address","internalType":"address"},{"name":"lockupPeriod","type":"address","internalType":"address"},{"name":"sqrtPriceImpactLimit","type":"address","internalType":"address"},{"name":"sqrtPriceX96","type":"uint256","internalType":"uint256"}],"outputs":[],"stateMutability":"nonpayable"},{"type":"function","name":"setupPosition","inputs":[{"name":"posId","type":"uint256","internalType":"uint256"},{"name":"perpId","type":"bytes32","internalType":"bytes32"},{"name":"margin","type":"uint128","internalType":"uint128"},{"name":"entryPerpDelta","type":"int256","internalType":"int256"},{"name":"entryUsdDelta","type":"int256","internalType":"int256"},{"name":"ratios","type":"tuple","internalType":"struct MockPerpManager.MarginRatios","components":[{"name":"min","type":"uint24","internalType":"uint24"},{"name":"max","type":"uint24","internalType":"uint24"},{"name":"liq","type":"uint24","internalType":"uint24"}]}],"outputs":[],"stateMutability":"nonpayable"},{"type":"function","name":"setupQuoteResult","inputs":[{"name":"posId","type":"uint256","internalType":"uint256"},{"name":"pnl","type":"int256","internalType":"int256"},{"name":"funding","type":"int256","internalType":"int256"},{"name":"netMargin","type":"uint256","internalType":"uint256"},{"name":"wasLiquidated","type":"bool","internalType":"bool"}],"outputs":[],"stateMutability":"nonpayable"},{"type":"function","name":"timeWeightedAvgSqrtPriceX96","inputs":[{"name":"perpId","type":"bytes32","internalType":"bytes32"},{"name":"","type":"uint32","internalType":"uint32"}],"outputs":[{"name":"","type":"uint256","internalType":"uint256"}],"stateMutability":"view"},{"type":"event","name":"PerpCreated","inputs":[{"name":"perpId","type":"bytes32","indexed":false,"internalType":"bytes32"},{"name":"beacon","type":"address","indexed":false,"internalType":"address"},{"name":"sqrtPriceX96","type":"uint256","indexed":false,"internalType":"uint256"},{"name":"indexPriceX96","type":"uint256","indexed":false,"internalType":"uint256"}],"anonymous":false},{"type":"event","name":"PositionClosed","inputs":[{"name":"perpId","type":"bytes32","indexed":false,"internalType":"bytes32"},{"name":"sqrtPriceX96","type":"uint256","indexed":false,"internalType":"uint256"},{"name":"longOI","type":"uint256","indexed":false,"internalType":"uint256"},{"name":"shortOI","type":"uint256","indexed":false,"internalType":"uint256"},{"name":"posId","type":"uint256","indexed":false,"internalType":"uint256"},{"name":"wasMaker","type":"bool","indexed":false,"internalType":"bool"},{"name":"wasLiquidated","type":"bool","indexed":false,"internalType":"bool"},{"name":"wasPartialClose","type":"bool","indexed":false,"internalType":"bool"},{"name":"perpDelta","type":"int256","indexed":false,"internalType":"int256"},{"name":"usdDelta","type":"int256","indexed":false,"internalType":"int256"},{"name":"tickLower","type":"int24","indexed":false,"internalType":"int24"},{"name":"tickUpper","type":"int24","indexed":false,"internalType":"int24"}],"anonymous":false},{"type":"event","name":"PositionOpened","inputs":[{"name":"perpId","type":"bytes32","indexed":false,"internalType":"bytes32"},{"name":"sqrtPriceX96","type":"uint256","indexed":false,"internalType":"uint256"},{"name":"longOI","type":"uint256","indexed":false,"internalType":"uint256"},{"name":"shortOI","type":"uint256","indexed":false,"internalType":"uint256"},{"name":"posId","type":"uint256","indexed":false,"internalType":"uint256"},{"name":"isMaker","type":"bool","indexed":false,"internalType":"bool"},{"name":"perpDelta","type":"int256","indexed":false,"internalType":"int256"},{"name":"usdDelta","type":"int256","indexed":false,"internalType":"int256"},{"name":"tickLower","type":"int24","indexed":false,"internalType":"int24"},{"name":"tickUpper","type":"int24","indexed":false,"internalType":"int24"}],"anonymous":false}],"bytecode":{"object":"0x608060405260015f55600180555f60025f6101000a81548162ffffff021916908362ffffff160217905550348015610035575f80fd5b506130e6806100435f395ff3fe608060405234801561000f575f80fd5b50600436106100e8575f3560e01c80636acab4101161008a57806399fbab881161006457806399fbab8814610287578063b0e21e8a146102bf578063c09e33d6146102dd578063dd75aefc146102f9576100e8565b80636acab4101461021f5780637832b0dc1461023b5780637feedaa11461026b576100e8565b806336bf4ae9116100c657806336bf4ae91461016c578063495f2f591461019c57806357606ca0146101b8578063646544a0146101e8576100e8565b80630c849b70146100ec5780631722bf151461012057806332ad0e8d14610150575b5f80fd5b61010660048036038101906101019190611d05565b610329565b604051610117959493929190611dfb565b60405180910390f35b61013a60048036038101906101359190611ea8565b61047d565b6040516101479190611ee6565b60405180910390f35b61016a60048036038101906101659190611f1d565b61084c565b005b61018660048036038101906101819190611f66565b610bb1565b6040516101939190611ee6565b60405180910390f35b6101b660048036038101906101b19190611ff9565b610e74565b005b6101d260048036038101906101cd91906120a9565b610eed565b6040516101df9190611ee6565b60405180910390f35b61020260048036038101906101fd91906120e7565b610f08565b6040516102169897969594939291906121fe565b60405180910390f35b610239600480360381019061023491906122e1565b61131e565b005b61025560048036038101906102509190611d05565b611433565b604051610262919061236b565b60405180910390f35b610285600480360381019061028091906123ae565b611450565b005b6102a1600480360381019061029c9190611d05565b611471565b6040516102b6999897969594939291906124e1565b60405180910390f35b6102c761168a565b6040516102d4919061257b565b60405180910390f35b6102f760048036038101906102f291906125dc565b61169e565b005b610313600480360381019061030e91906126d7565b611af1565b6040516103209190612702565b60405180910390f35b60605f805f8060075f8781526020019081526020015f205f9054906101000a900460ff166103f05760405160240161036090612775565b6040516020818303038152906040527f08c379a0000000000000000000000000000000000000000000000000000000007bffffffffffffffffffffffffffffffffffffffffffffffffffffffff19166020820180517bffffffffffffffffffffffffffffffffffffffffffffffffffffffff83818316178352505050505f805f8094509450945094509450610474565b5f60085f8881526020019081526020015f206040518060800160405290815f82015481526020016001820154815260200160028201548152602001600382015f9054906101000a900460ff161515151581525050905060405180602001604052805f815250815f015182602001518360400151846060015195509550955095509550505b91939590929450565b5f60045f8481526020019081526020015f205f9054906101000a900460ff166104db576040517f08c379a00000000000000000000000000000000000000000000000000000000081526004016104d2906127dd565b60405180910390fd5b5f808154809291906104ec90612828565b9190505590505f82606001602081019061050691906123ae565b62ffffff16620f4240846040016020810190610522919061286f565b6fffffffffffffffffffffffffffffffff1661053e919061289a565b6105489190612908565b90505f83602001602081019061055e9190612938565b610571578161056c90612963565b610573565b815b90505f8460200160208101906105899190612938565b610593578261059e565b8261059d90612963565b5b90508560065f8681526020019081526020015f205f01819055508460400160208101906105cb919061286f565b6fffffffffffffffffffffffffffffffff1660065f8681526020019081526020015f20600101819055508160065f8681526020019081526020015f20600201819055508060065f8681526020019081526020015f2060030181905550604051806060016040528086606001602081019061064591906123ae565b62ffffff168152602001620f424062ffffff168152602001600287606001602081019061067291906123ae565b61067c91906129a9565b62ffffff1681525060065f8681526020019081526020015f206007015f820151815f015f6101000a81548162ffffff021916908362ffffff1602179055506020820151815f0160036101000a81548162ffffff021916908362ffffff1602179055506040820151815f0160066101000a81548162ffffff021916908362ffffff160217905550905050600160075f8681526020019081526020015f205f6101000a81548160ff02191690831515021790555060405180608001604052805f81526020015f8152602001866040016020810190610758919061286f565b6fffffffffffffffffffffffffffffffff1681526020015f151581525060085f8681526020019081526020015f205f820151815f015560208201518160010155604082015181600201556060820151816003015f6101000a81548160ff0219169083151502179055509050507f539406433da82f2f8d907db1339f4c27bcde03e8c95053bda5aca4ea7533b8b08660055f8981526020019081526020015f20546103e880885f88887ffffffffffffffffffffffffffffffffffffffffffffffffffffffffffff2764c620d89b460405161083b9a99989796959493929190612a8d565b60405180910390a150505092915050565b60075f825f013581526020019081526020015f205f9054906101000a900460ff166108ac576040517f08c379a00000000000000000000000000000000000000000000000000000000081526004016108a390612775565b60405180910390fd5b5f60065f835f013581526020019081526020015f20604051806101200160405290815f8201548152602001600182015481526020016002820154815260200160038201548152602001600482015481526020016005820154815260200160068201548152602001600782016040518060600160405290815f82015f9054906101000a900462ffffff1662ffffff1662ffffff1681526020015f820160039054906101000a900462ffffff1662ffffff1662ffffff1681526020015f820160069054906101000a900462ffffff1662ffffff1662ffffff16815250508152602001600882016040518060e00160405290815f82015f9054906101000a900463ffffffff1663ffffffff1663ffffffff1681526020015f820160049054906101000a900460020b60020b60020b81526020015f820160079054906101000a900460020b60020b60020b81526020015f8201600a9054906101000a90046fffffffffffffffffffffffffffffffff166fffffffffffffffffffffffffffffffff166fffffffffffffffffffffffffffffffff16815260200160018201548152602001600282015481526020016003820154815250508152505090505f60085f845f013581526020019081526020015f206040518060800160405290815f82015481526020016001820154815260200160028201548152602001600382015f9054906101000a900460ff1615151515815250509050600160095f855f013581526020019081526020015f205f6101000a81548160ff0219169083151502179055505f60075f855f013581526020019081526020015f205f6101000a81548160ff0219169083151502179055507fabf51aea8c550a072948bb4613eda402b59b193112d829eabdb8db19d2155e89825f015160055f855f015181526020019081526020015f20546103e880875f01355f87606001515f8a604001518b606001517ffffffffffffffffffffffffffffffffffffffffffffffffffffffffffff2764c620d89b4604051610ba49c9b9a99989796959493929190612b27565b60405180910390a1505050565b5f60045f8481526020019081526020015f205f9054906101000a900460ff16610c0f576040517f08c379a0000000000000000000000000000000000000000000000000000000008152600401610c06906127dd565b60405180910390fd5b5f80815480929190610c2090612828565b9190505590508260065f8381526020019081526020015f205f0181905550816020016020810190610c51919061286f565b6fffffffffffffffffffffffffffffffff1660065f8381526020019081526020015f20600101819055506040518060600160405280620186a062ffffff168152602001620f424062ffffff16815260200161c35062ffffff1681525060065f8381526020019081526020015f206007015f820151815f015f6101000a81548162ffffff021916908362ffffff1602179055506020820151815f0160036101000a81548162ffffff021916908362ffffff1602179055506040820151815f0160066101000a81548162ffffff021916908362ffffff160217905550905050600160075f8381526020019081526020015f205f6101000a81548160ff02191690831515021790555060405180608001604052805f81526020015f8152602001836020016020810190610d81919061286f565b6fffffffffffffffffffffffffffffffff1681526020015f151581525060085f8381526020019081526020015f205f820151815f015560208201518160010155604082015181600201556060820151816003015f6101000a81548160ff0219169083151502179055509050507f539406433da82f2f8d907db1339f4c27bcde03e8c95053bda5aca4ea7533b8b08360055f8681526020019081526020015f20546103e8808560015f808a6060016020810190610e3d9190612c09565b8b6080016020810190610e509190612c09565b604051610e669a99989796959493929190612c7c565b60405180910390a192915050565b604051806080016040528085815260200184815260200183815260200182151581525060085f8781526020019081526020015f205f820151815f015560208201518160010155604082015181600201556060820151816003015f6101000a81548160ff0219169083151502179055509050505050505050565b5f60055f8481526020019081526020015f2054905092915050565b610f10611bd0565b5f805f805f805f8060035f8b81526020019081526020015f20604051806101000160405290815f82016040518060a00160405290815f82015f9054906101000a900473ffffffffffffffffffffffffffffffffffffffff1673ffffffffffffffffffffffffffffffffffffffff1673ffffffffffffffffffffffffffffffffffffffff168152602001600182015f9054906101000a900473ffffffffffffffffffffffffffffffffffffffff1673ffffffffffffffffffffffffffffffffffffffff1673ffffffffffffffffffffffffffffffffffffffff1681526020016001820160149054906101000a900462ffffff1662ffffff1662ffffff1681526020016001820160179054906101000a900460020b60020b60020b8152602001600282015f9054906101000a900473ffffffffffffffffffffffffffffffffffffffff1673ffffffffffffffffffffffffffffffffffffffff1673ffffffffffffffffffffffffffffffffffffffff16815250508152602001600382015f9054906101000a900473ffffffffffffffffffffffffffffffffffffffff1673ffffffffffffffffffffffffffffffffffffffff1673ffffffffffffffffffffffffffffffffffffffff168152602001600482015f9054906101000a900473ffffffffffffffffffffffffffffffffffffffff1673ffffffffffffffffffffffffffffffffffffffff1673ffffffffffffffffffffffffffffffffffffffff168152602001600582015f9054906101000a900473ffffffffffffffffffffffffffffffffffffffff1673ffffffffffffffffffffffffffffffffffffffff1673ffffffffffffffffffffffffffffffffffffffff168152602001600682015f9054906101000a900473ffffffffffffffffffffffffffffffffffffffff1673ffffffffffffffffffffffffffffffffffffffff1673ffffffffffffffffffffffffffffffffffffffff168152602001600782015f9054906101000a900473ffffffffffffffffffffffffffffffffffffffff1673ffffffffffffffffffffffffffffffffffffffff1673ffffffffffffffffffffffffffffffffffffffff168152602001600882015f9054906101000a900473ffffffffffffffffffffffffffffffffffffffff1673ffffffffffffffffffffffffffffffffffffffff1673ffffffffffffffffffffffffffffffffffffffff168152602001600982015f9054906101000a900473ffffffffffffffffffffffffffffffffffffffff1673ffffffffffffffffffffffffffffffffffffffff1673ffffffffffffffffffffffffffffffffffffffff16815250509050805f015181602001518260400151836060015184608001518560a001518660c001518760e001519850985098509850985098509850985050919395975091939597565b8460065f8881526020019081526020015f205f0181905550836fffffffffffffffffffffffffffffffff1660065f8881526020019081526020015f20600101819055508260065f8881526020019081526020015f20600201819055508160065f8881526020019081526020015f20600301819055505f60065f8881526020019081526020015f20600401819055505f60065f8881526020019081526020015f20600501819055505f60065f8881526020019081526020015f20600601819055508060065f8881526020019081526020015f2060070181816113ff9190612eb9565b905050600160075f8881526020019081526020015f205f6101000a81548160ff021916908315150217905550505050505050565b6009602052805f5260405f205f915054906101000a900460ff1681565b8060025f6101000a81548162ffffff021916908362ffffff16021790555050565b5f805f805f805f611480611c44565b611488611c71565b5f60065f8c81526020019081526020015f20604051806101200160405290815f8201548152602001600182015481526020016002820154815260200160038201548152602001600482015481526020016005820154815260200160068201548152602001600782016040518060600160405290815f82015f9054906101000a900462ffffff1662ffffff1662ffffff1681526020015f820160039054906101000a900462ffffff1662ffffff1662ffffff1681526020015f820160069054906101000a900462ffffff1662ffffff1662ffffff16815250508152602001600882016040518060e00160405290815f82015f9054906101000a900463ffffffff1663ffffffff1663ffffffff1681526020015f820160049054906101000a900460020b60020b60020b81526020015f820160079054906101000a900460020b60020b60020b81526020015f8201600a9054906101000a90046fffffffffffffffffffffffffffffffff166fffffffffffffffffffffffffffffffff166fffffffffffffffffffffffffffffffff1681526020016001820154815260200160028201548152602001600382015481525050815250509050805f015181602001518260400151836060015184608001518560a001518660c001518760e00151886101000151995099509950995099509950995099509950509193959799909294969850565b60025f9054906101000a900462ffffff1681565b6040518061010001604052808a8036038101906116bb9190612fcc565b81526020018973ffffffffffffffffffffffffffffffffffffffff1681526020018873ffffffffffffffffffffffffffffffffffffffff1681526020018773ffffffffffffffffffffffffffffffffffffffff1681526020018673ffffffffffffffffffffffffffffffffffffffff1681526020018573ffffffffffffffffffffffffffffffffffffffff1681526020018473ffffffffffffffffffffffffffffffffffffffff1681526020018373ffffffffffffffffffffffffffffffffffffffff1681525060035f8c81526020019081526020015f205f820151815f015f820151815f015f6101000a81548173ffffffffffffffffffffffffffffffffffffffff021916908373ffffffffffffffffffffffffffffffffffffffff1602179055506020820151816001015f6101000a81548173ffffffffffffffffffffffffffffffffffffffff021916908373ffffffffffffffffffffffffffffffffffffffff16021790555060408201518160010160146101000a81548162ffffff021916908362ffffff16021790555060608201518160010160176101000a81548162ffffff021916908360020b62ffffff1602179055506080820151816002015f6101000a81548173ffffffffffffffffffffffffffffffffffffffff021916908373ffffffffffffffffffffffffffffffffffffffff16021790555050506020820151816003015f6101000a81548173ffffffffffffffffffffffffffffffffffffffff021916908373ffffffffffffffffffffffffffffffffffffffff1602179055506040820151816004015f6101000a81548173ffffffffffffffffffffffffffffffffffffffff021916908373ffffffffffffffffffffffffffffffffffffffff1602179055506060820151816005015f6101000a81548173ffffffffffffffffffffffffffffffffffffffff021916908373ffffffffffffffffffffffffffffffffffffffff1602179055506080820151816006015f6101000a81548173ffffffffffffffffffffffffffffffffffffffff021916908373ffffffffffffffffffffffffffffffffffffffff16021790555060a0820151816007015f6101000a81548173ffffffffffffffffffffffffffffffffffffffff021916908373ffffffffffffffffffffffffffffffffffffffff16021790555060c0820151816008015f6101000a81548173ffffffffffffffffffffffffffffffffffffffff021916908373ffffffffffffffffffffffffffffffffffffffff16021790555060e0820151816009015f6101000a81548173ffffffffffffffffffffffffffffffffffffffff021916908373ffffffffffffffffffffffffffffffffffffffff160217905550905050600160045f8c81526020019081526020015f205f6101000a81548160ff0219169083151502179055508060055f8c81526020019081526020015f208190555050505050505050505050565b5f4260015f815480929190611b0590612828565b91905055604051602001611b1a929190613017565b604051602081830303815290604052805190602001209050600160045f8381526020019081526020015f205f6101000a81548160ff0219169083151502179055508160a0013560055f8381526020019081526020015f20819055507fdcd936079b1594821c5562b33a56804c86f234a036d9316a6cf1f6e3ee29891481835f016020810190611ba99190613042565b8460a001358560a00135604051611bc3949392919061306d565b60405180910390a1919050565b6040518060a001604052805f73ffffffffffffffffffffffffffffffffffffffff1681526020015f73ffffffffffffffffffffffffffffffffffffffff1681526020015f62ffffff1681526020015f60020b81526020015f73ffffffffffffffffffffffffffffffffffffffff1681525090565b60405180606001604052805f62ffffff1681526020015f62ffffff1681526020015f62ffffff1681525090565b6040518060e001604052805f63ffffffff1681526020015f60020b81526020015f60020b81526020015f6fffffffffffffffffffffffffffffffff1681526020015f81526020015f81526020015f81525090565b5f604051905090565b5f80fd5b5f819050919050565b611ce481611cd2565b8114611cee575f80fd5b50565b5f81359050611cff81611cdb565b92915050565b5f60208284031215611d1a57611d19611cce565b5b5f611d2784828501611cf1565b91505092915050565b5f81519050919050565b5f82825260208201905092915050565b5f5b83811015611d67578082015181840152602081019050611d4c565b5f8484015250505050565b5f601f19601f8301169050919050565b5f611d8c82611d30565b611d968185611d3a565b9350611da6818560208601611d4a565b611daf81611d72565b840191505092915050565b5f819050919050565b611dcc81611dba565b82525050565b611ddb81611cd2565b82525050565b5f8115159050919050565b611df581611de1565b82525050565b5f60a0820190508181035f830152611e138188611d82565b9050611e226020830187611dc3565b611e2f6040830186611dc3565b611e3c6060830185611dd2565b611e496080830184611dec565b9695505050505050565b5f819050919050565b611e6581611e53565b8114611e6f575f80fd5b50565b5f81359050611e8081611e5c565b92915050565b5f80fd5b5f60a08284031215611e9f57611e9e611e86565b5b81905092915050565b5f8060c08385031215611ebe57611ebd611cce565b5b5f611ecb85828601611e72565b9250506020611edc85828601611e8a565b9150509250929050565b5f602082019050611ef95f830184611dd2565b92915050565b5f60808284031215611f1457611f13611e86565b5b81905092915050565b5f60808284031215611f3257611f31611cce565b5b5f611f3f84828501611eff565b91505092915050565b5f60e08284031215611f5d57611f5c611e86565b5b81905092915050565b5f806101008385031215611f7d57611f7c611cce565b5b5f611f8a85828601611e72565b9250506020611f9b85828601611f48565b9150509250929050565b611fae81611dba565b8114611fb8575f80fd5b50565b5f81359050611fc981611fa5565b92915050565b611fd881611de1565b8114611fe2575f80fd5b50565b5f81359050611ff381611fcf565b92915050565b5f805f805f60a0868803121561201257612011611cce565b5b5f61201f88828901611cf1565b955050602061203088828901611fbb565b945050604061204188828901611fbb565b935050606061205288828901611cf1565b925050608061206388828901611fe5565b9150509295509295909350565b5f63ffffffff82169050919050565b61208881612070565b8114612092575f80fd5b50565b5f813590506120a38161207f565b92915050565b5f80604083850312156120bf576120be611cce565b5b5f6120cc85828601611e72565b92505060206120dd85828601612095565b9150509250929050565b5f602082840312156120fc576120fb611cce565b5b5f61210984828501611e72565b91505092915050565b5f73ffffffffffffffffffffffffffffffffffffffff82169050919050565b5f61213b82612112565b9050919050565b61214b81612131565b82525050565b5f62ffffff82169050919050565b61216881612151565b82525050565b5f8160020b9050919050565b6121838161216e565b82525050565b60a082015f82015161219d5f850182612142565b5060208201516121b06020850182612142565b5060408201516121c3604085018261215f565b5060608201516121d6606085018261217a565b5060808201516121e96080850182612142565b50505050565b6121f881612131565b82525050565b5f610180820190506122125f83018b612189565b61221f60a083018a6121ef565b61222c60c08301896121ef565b61223960e08301886121ef565b6122476101008301876121ef565b6122556101208301866121ef565b6122636101408301856121ef565b6122716101608301846121ef565b9998505050505050505050565b5f6fffffffffffffffffffffffffffffffff82169050919050565b6122a28161227e565b81146122ac575f80fd5b50565b5f813590506122bd81612299565b92915050565b5f606082840312156122d8576122d7611e86565b5b81905092915050565b5f805f805f8061010087890312156122fc576122fb611cce565b5b5f61230989828a01611cf1565b965050602061231a89828a01611e72565b955050604061232b89828a016122af565b945050606061233c89828a01611fbb565b935050608061234d89828a01611fbb565b92505060a061235e89828a016122c3565b9150509295509295509295565b5f60208201905061237e5f830184611dec565b92915050565b61238d81612151565b8114612397575f80fd5b50565b5f813590506123a881612384565b92915050565b5f602082840312156123c3576123c2611cce565b5b5f6123d08482850161239a565b91505092915050565b6123e281611e53565b82525050565b606082015f8201516123fc5f85018261215f565b50602082015161240f602085018261215f565b506040820151612422604085018261215f565b50505050565b61243181612070565b82525050565b6124408161227e565b82525050565b61244f81611dba565b82525050565b60e082015f8201516124695f850182612428565b50602082015161247c602085018261217a565b50604082015161248f604085018261217a565b5060608201516124a26060850182612437565b5060808201516124b56080850182612446565b5060a08201516124c860a0850182612446565b5060c08201516124db60c0850182612446565b50505050565b5f610220820190506124f55f83018c6123d9565b612502602083018b611dd2565b61250f604083018a611dc3565b61251c6060830189611dc3565b6125296080830188611dc3565b61253660a0830187611dd2565b61254360c0830186611dd2565b61255060e08301856123e8565b61255e610140830184612455565b9a9950505050505050505050565b61257581612151565b82525050565b5f60208201905061258e5f83018461256c565b92915050565b5f60a082840312156125a9576125a8611e86565b5b81905092915050565b6125bb81612131565b81146125c5575f80fd5b50565b5f813590506125d6816125b2565b92915050565b5f805f805f805f805f806101c08b8d0312156125fb576125fa611cce565b5b5f6126088d828e01611e72565b9a505060206126198d828e01612594565b99505060c061262a8d828e016125c8565b98505060e061263b8d828e016125c8565b97505061010061264d8d828e016125c8565b96505061012061265f8d828e016125c8565b9550506101406126718d828e016125c8565b9450506101606126838d828e016125c8565b9350506101806126958d828e016125c8565b9250506101a06126a78d828e01611cf1565b9150509295989b9194979a5092959850565b5f60c082840312156126ce576126cd611e86565b5b81905092915050565b5f60c082840312156126ec576126eb611cce565b5b5f6126f9848285016126b9565b91505092915050565b5f6020820190506127155f8301846123d9565b92915050565b5f82825260208201905092915050565b7f706f736974696f6e20646f6573206e6f742065786973740000000000000000005f82015250565b5f61275f60178361271b565b915061276a8261272b565b602082019050919050565b5f6020820190508181035f83015261278c81612753565b9050919050565b7f7065727020646f6573206e6f74206578697374000000000000000000000000005f82015250565b5f6127c760138361271b565b91506127d282612793565b602082019050919050565b5f6020820190508181035f8301526127f4816127bb565b9050919050565b7f4e487b71000000000000000000000000000000000000000000000000000000005f52601160045260245ffd5b5f61283282611cd2565b91507fffffffffffffffffffffffffffffffffffffffffffffffffffffffffffffffff8203612864576128636127fb565b5b600182019050919050565b5f6020828403121561288457612883611cce565b5b5f612891848285016122af565b91505092915050565b5f6128a482611cd2565b91506128af83611cd2565b92508282026128bd81611cd2565b915082820484148315176128d4576128d36127fb565b5b5092915050565b7f4e487b71000000000000000000000000000000000000000000000000000000005f52601260045260245ffd5b5f61291282611cd2565b915061291d83611cd2565b92508261292d5761292c6128db565b5b828204905092915050565b5f6020828403121561294d5761294c611cce565b5b5f61295a84828501611fe5565b91505092915050565b5f61296d82611dba565b91507f8000000000000000000000000000000000000000000000000000000000000000820361299f5761299e6127fb565b5b815f039050919050565b5f6129b382612151565b91506129be83612151565b9250826129ce576129cd6128db565b5b828204905092915050565b5f819050919050565b5f819050919050565b5f612a05612a006129fb846129d9565b6129e2565b611cd2565b9050919050565b612a15816129eb565b82525050565b5f819050919050565b5f612a3e612a39612a3484612a1b565b6129e2565b61216e565b9050919050565b612a4e81612a24565b82525050565b5f819050919050565b5f612a77612a72612a6d84612a54565b6129e2565b61216e565b9050919050565b612a8781612a5d565b82525050565b5f61014082019050612aa15f83018d6123d9565b612aae602083018c611dd2565b612abb604083018b612a0c565b612ac8606083018a612a0c565b612ad56080830189611dd2565b612ae260a0830188611dec565b612aef60c0830187611dc3565b612afc60e0830186611dc3565b612b0a610100830185612a45565b612b18610120830184612a7e565b9b9a5050505050505050505050565b5f61018082019050612b3b5f83018f6123d9565b612b48602083018e611dd2565b612b55604083018d612a0c565b612b62606083018c612a0c565b612b6f608083018b611dd2565b612b7c60a083018a611dec565b612b8960c0830189611dec565b612b9660e0830188611dec565b612ba4610100830187611dc3565b612bb2610120830186611dc3565b612bc0610140830185612a45565b612bce610160830184612a7e565b9d9c50505050505050505050505050565b612be88161216e565b8114612bf2575f80fd5b50565b5f81359050612c0381612bdf565b92915050565b5f60208284031215612c1e57612c1d611cce565b5b5f612c2b84828501612bf5565b91505092915050565b5f819050919050565b5f612c57612c52612c4d84612c34565b6129e2565b611dba565b9050919050565b612c6781612c3d565b82525050565b612c768161216e565b82525050565b5f61014082019050612c905f83018d6123d9565b612c9d602083018c611dd2565b612caa604083018b612a0c565b612cb7606083018a612a0c565b612cc46080830189611dd2565b612cd160a0830188611dec565b612cde60c0830187612c5e565b612ceb60e0830186612c5e565b612cf9610100830185612c6d565b612d07610120830184612c6d565b9b9a5050505050505050505050565b5f8135612d2281612384565b80915050919050565b5f815f1b9050919050565b5f62ffffff612d4484612d2b565b9350801983169250808416831791505092915050565b5f612d74612d6f612d6a84612151565b6129e2565b612151565b9050919050565b5f819050919050565b612d8d82612d5a565b612da0612d9982612d7b565b8354612d36565b8255505050565b5f8160181b9050919050565b5f65ffffff000000612dc484612da7565b9350801983169250808416831791505092915050565b612de382612d5a565b612df6612def82612d7b565b8354612db3565b8255505050565b5f8160301b9050919050565b5f68ffffff000000000000612e1d84612dfd565b9350801983169250808416831791505092915050565b612e3c82612d5a565b612e4f612e4882612d7b565b8354612e09565b8255505050565b5f81015f830180612e6681612d16565b9050612e728184612d84565b5050505f81016020830180612e8681612d16565b9050612e928184612dda565b5050505f81016040830180612ea681612d16565b9050612eb28184612e33565b5050505050565b612ec38282612e56565b5050565b5f80fd5b7f4e487b71000000000000000000000000000000000000000000000000000000005f52604160045260245ffd5b612f0182611d72565b810181811067ffffffffffffffff82111715612f2057612f1f612ecb565b5b80604052505050565b5f612f32611cc5565b9050612f3e8282612ef8565b919050565b5f60a08284031215612f5857612f57612ec7565b5b612f6260a0612f29565b90505f612f71848285016125c8565b5f830152506020612f84848285016125c8565b6020830152506040612f988482850161239a565b6040830152506060612fac84828501612bf5565b6060830152506080612fc0848285016125c8565b60808301525092915050565b5f60a08284031215612fe157612fe0611cce565b5b5f612fee84828501612f43565b91505092915050565b5f819050919050565b61301161300c82611cd2565b612ff7565b82525050565b5f6130228285613000565b6020820191506130328284613000565b6020820191508190509392505050565b5f6020828403121561305757613056611cce565b5b5f613064848285016125c8565b91505092915050565b5f6080820190506130805f8301876123d9565b61308d60208301866121ef565b61309a6040830185611dd2565b6130a76060830184611dd2565b9594505050505056fea2646970667358221220951a044023322ae6a3af6214f28f4315db07a3c67c200943e3dbd659739430b364736f6c63430008180033","linkReferences":{}},"methodIdentifiers":{"cfgs(bytes32)":"646544a0","closePosition((uint256,uint128,uint128,uint128))":"32ad0e8d","closedPositions(uint256)":"7832b0dc","createPerp((address,address,address,address,address,uint256))":"dd75aefc","openMakerPos(bytes32,(address,uint128,uint120,int24,int24,uint128,uint128))":"36bf4ae9","openTakerPos(bytes32,(address,bool,uint128,uint24,uint128))":"1722bf15","positions(uint256)":"99fbab88","protocolFee()":"b0e21e8a","quoteClosePosition(uint256)":"0c849b70","setProtocolFee(uint24)":"7feedaa1","setupPerp(bytes32,(address,address,uint24,int24,address),address,address,address,address,address,address,address,uint256)":"c09e33d6","setupPosition(uint256,bytes32,uint128,int256,int256,(uint24,uint24,uint24))":"6acab410","setupQuoteResult(uint256,int256,int256,uint256,bool)":"495f2f59","timeWeightedAvgSqrtPriceX96(bytes32,uint32)":"57606ca0"},"id":2}