{"abi":[{"type":"constructor","inputs":[{"name":"minTaker","type":"uint24","internalType":"uint24"},{"name":"maxTaker","type":"uint24","internalType":"uint24"},{"name":"liqTaker","type":"uint24","internalType":"uint24"},{"name":"minMaker","type":"uint24","internalType":"uint24"},{"name":"maxMaker","type":"uint24","internalType":"uint24"},{"name":"liqMaker","type":"uint24","internalType":"uint24"}],"stateMutability":"nonpayable"},{"type":"function","name":"LIQUIDATION_MAKER_RATIO","inputs":[],"outputs":[{"name":"","type":"uint24","internalType":"uint24"}],"stateMutability":"view"},{"type":"function","name":"LIQUIDATION_TAKER_RATIO","inputs":[],"outputs":[{"name":"","type":"uint24","internalType":"uint24"}],"stateMutability":"view"},{"type":"function","name":"MAX_MAKER_RATIO","inputs":[],"outputs":[{"name":"","type":"uint24","internalType":"uint24"}],"stateMutability":"view"},{"type":"function","name":"MAX_TAKER_RATIO","inputs":[],"outputs":[{"name":"","type":"uint24","internalType":"uint24"}],"stateMutability":"view"},{"type":"function","name":"MIN_MAKER_RATIO","inputs":[],"outputs":[{"name":"","type":"uint24","internalType":"uint24"}],"stateMutability":"view"},{"type":"function","name":"MIN_TAKER_RATIO","inputs":[],"outputs":[{"name":"","type":"uint24","internalType":"uint24"}],"stateMutability":"view"}],"bytecode":{"object":"0x610140346100dd57601f61031738819003918201601f19168301916001600160401b038311848410176100e15780849260c0946040528339810103126100dd57610048816100f5565b610054602083016100f5565b610060604084016100f5565b61006c606085016100f5565b9161008560a061007e608088016100f5565b96016100f5565b9360805260a05260c05260e05261010091825261012090815260405190610211928361010684396080518361013b015260a05183607a015260c0518361017a015260e051836101b70152518260fc0152518160bd0152f35b5f80fd5b634e487b7160e01b5f52604160045260245ffd5b519062ffffff821682036100dd5756fe60806040908082526004361015610014575f80fd5b5f3560e01c9081633726ff021461019e575080633f9fadd11461015f5780638621f0f114610120578063b17e1d8e146100e1578063b8a1967e146100a25763f547274f14610060575f80fd5b3461009e575f36600319011261009e576020905162ffffff7f0000000000000000000000000000000000000000000000000000000000000000168152f35b5f80fd5b503461009e575f36600319011261009e576020905162ffffff7f0000000000000000000000000000000000000000000000000000000000000000168152f35b503461009e575f36600319011261009e576020905162ffffff7f0000000000000000000000000000000000000000000000000000000000000000168152f35b503461009e575f36600319011261009e576020905162ffffff7f0000000000000000000000000000000000000000000000000000000000000000168152f35b503461009e575f36600319011261009e576020905162ffffff7f0000000000000000000000000000000000000000000000000000000000000000168152f35b3461009e575f36600319011261009e5760209062ffffff7f0000000000000000000000000000000000000000000000000000000000000000168152f3fea26469706673582212204c17ca0fd47ddfae9b0b4356ad4078252c9e8f9f097c9c6f41d1238145102efc64736f6c63430008180033","linkReferences":{}},"methodIdentifiers":{"LIQUIDATION_MAKER_RATIO()":"b8a1967e","LIQUIDATION_TAKER_RATIO()":"3f9fadd1","MAX_MAKER_RATIO()":"b17e1d8e","MAX_TAKER_RATIO()":"f547274f","MIN_MAKER_RATIO()":"3726ff02","MIN_TAKER_RATIO()":"8621f0f1"},"id":1}