{"abi":[{"type":"constructor","inputs":[{"name":"minTaker","type":"uint24","internalType":"uint24"},{"name":"maxTaker","type":"uint24","internalType":"uint24"},{"name":"liqTaker","type":"uint24","internalType":"uint24"},{"name":"minMaker","type":"uint24","internalType":"uint24"},{"name":"maxMaker","type":"uint24","internalType":"uint24"},{"name":"liqMaker","type":"uint24","internalType":"uint24"}],"stateMutability":"nonpayable"},{"type":"function","name":"LIQUIDATION_MAKER_RATIO","inputs":[],"outputs":[{"name":"","type":"uint24","internalType":"uint24"}],"stateMutability":"view"},{"type":"function","name":"LIQUIDATION_TAKER_RATIO","inputs":[],"outputs":[{"name":"","type":"uint24","internalType":"uint24"}],"stateMutability":"view"},{"type":"function","name":"MAX_MAKER_RATIO","inputs":[],"outputs":[{"name":"","type":"uint24","internalType":"uint24"}],"stateMutability":"view"},{"type":"function","name":"MAX_TAKER_RATIO","inputs":[],"outputs":[{"name":"","type":"uint24","internalType":"uint24"}],"stateMutability":"view"},{"type":"function","name":"MIN_MAKER_RATIO","inputs":[],"outputs":[{"name":"","type":"uint24","internalType":"uint24"}],"stateMutability":"view"},{"type":"function","name":"MIN_TAKER_RATIO","inputs":[],"outputs":[{"name":"","type":"uint24","internalType":"uint24"}],"stateMutability":"view"}],"bytecode":{"object":"0x610140604052348015610010575f80fd5b50604051610413380380610413833981810160405281019061003291906100e7565b8562ffffff1660808162ffffff16815250508462ffffff1660a08162ffffff16815250508362ffffff1660c08162ffffff16815250508262ffffff1660e08162ffffff16815250508162ffffff166101008162ffffff16815250508062ffffff166101208162ffffff1681525050505050505050610170565b5f80fd5b5f62ffffff82169050919050565b6100c6816100af565b81146100d0575f80fd5b50565b5f815190506100e1816100bd565b92915050565b5f805f805f8060c08789031215610101576101006100ab565b5b5f61010e89828a016100d3565b965050602061011f89828a016100d3565b955050604061013089828a016100d3565b945050606061014189828a016100d3565b935050608061015289828a016100d3565b92505060a061016389828a016100d3565b9150509295509295509295565b60805160a05160c05160e051610100516101205161025c6101b75f395f6101aa01525f61018601525f61011a01525f61013e01525f6101ce01525f610162015261025c5ff3fe608060405234801561000f575f80fd5b5060043610610060575f3560e01c80633726ff02146100645780633f9fadd1146100825780638621f0f1146100a0578063b17e1d8e146100be578063b8a1967e146100dc578063f547274f146100fa575b5f80fd5b61006c610118565b604051610079919061020d565b60405180910390f35b61008a61013c565b604051610097919061020d565b60405180910390f35b6100a8610160565b6040516100b5919061020d565b60405180910390f35b6100c6610184565b6040516100d3919061020d565b60405180910390f35b6100e46101a8565b6040516100f1919061020d565b60405180910390f35b6101026101cc565b60405161010f919061020d565b60405180910390f35b7f000000000000000000000000000000000000000000000000000000000000000081565b7f000000000000000000000000000000000000000000000000000000000000000081565b7f000000000000000000000000000000000000000000000000000000000000000081565b7f000000000000000000000000000000000000000000000000000000000000000081565b7f000000000000000000000000000000000000000000000000000000000000000081565b7f000000000000000000000000000000000000000000000000000000000000000081565b5f62ffffff82169050919050565b610207816101f0565b82525050565b5f6020820190506102205f8301846101fe565b9291505056fea26469706673582212200e1331e1110f83ccf408b1c78a568c9a94d203a368d0788ad89f57f165a2a6ea64736f6c63430008180033","linkReferences":{}},"methodIdentifiers":{"LIQUIDATION_MAKER_RATIO()":"b8a1967e","LIQUIDATION_TAKER_RATIO()":"3f9fadd1","MAX_MAKER_RATIO()":"b17e1d8e","MAX_TAKER_RATIO()":"f547274f","MIN_MAKER_RATIO()":"3726ff02","MIN_TAKER_RATIO()":"8621f0f1"},"id":1}